:100000000C9434000C9446000C9446000C9446006A
:100010000C9446000C9446000C9446000C94460048
:100020000C9446000C9446000C9446000C94460038
:100030000C9446000C9446000C9446000C94460028
:100040000C9455000C9446000C9446000C94460009
:100050000C9446000C9446000C9446000C94460008
:100060000C9446000C94460011241FBECFEFD8E03C
:10007000DEBFCDBF21E0A0E0B1E001C01D92A23003
:10008000B207E1F70E9464000C948A000C9400000F
:10009000569A83E884BD81E080936E0080910001D0
:1000A00087BD789485E085BD08951F920F920FB6A5
:1000B0000F9211248F938091000187BD8F910F9033
:1000C0000FBE0F901F9018950E94480030E020E06E
:1000D0005FEF40E0832F922F909301018093000106
:1000E000EFE1FEE43197F1F700C0000001968115C1
:1000F000F1E09F0789F7852F942F9093010180935A
:100100000001EFE1FEE43197F1F700C00000019734
:08011000A0F7E0CFF894FFCF47
:00000001FF
